{
  "contractName": "Class",
  "abi": [
    {
      "constant": true,
      "inputs": [
        {
          "name": "",
          "type": "uint256"
        }
      ],
      "name": "hm_orderNumber_bool",
      "outputs": [
        {
          "name": "",
          "type": "bool"
        }
      ],
      "payable": false,
      "stateMutability": "view",
      "type": "function"
    },
    {
      "constant": true,
      "inputs": [
        {
          "name": "",
          "type": "uint256"
        }
      ],
      "name": "reviews",
      "outputs": [
        {
          "name": "recepitID",
          "type": "uint256"
        },
        {
          "name": "reviewMessage",
          "type": "string"
        },
        {
          "name": "numStars",
          "type": "uint256"
        }
      ],
      "payable": false,
      "stateMutability": "view",
      "type": "function"
    },
    {
      "constant": true,
      "inputs": [],
      "name": "reviewCount",
      "outputs": [
        {
          "name": "",
          "type": "uint256"
        }
      ],
      "payable": false,
      "stateMutability": "view",
      "type": "function"
    },
    {
      "inputs": [],
      "payable": false,
      "stateMutability": "nonpayable",
      "type": "constructor"
    }
  ],
  "bytecode": "0x608060405234801561001057600080fd5b5061006260016040805190810160405280601081526020017f436869636b656e20616e6420726963650000000000000000000000000000000081525060046100b8640100000000026401000000009004565b6100b360026040805190810160405280601081526020017f5468616920426173696c2043757272790000000000000000000000000000000081525060056100b8640100000000026401000000009004565b61024f565b6001600084815260200190815260200160002060009054906101000a900460ff161515156100e557600080fd5b600181101580156100f7575060058111155b151561010257600080fd5b60026000815480929190600101919050555060606040519081016040528084815260200183815260200182815250600080600254815260200190815260200160002060008201518160000155602082015181600101908051906020019061016a9291906101aa565b50604082015181600201559050506001806000600254815260200190815260200160002060006101000a81548160ff021916908315150217905550505050565b828054600181600116156101000203166002900490600052602060002090601f016020900481019282601f106101eb57805160ff1916838001178555610219565b82800160010185558215610219579182015b828111156102185782518255916020019190600101906101fd565b5b509050610226919061022a565b5090565b61024c91905b80821115610248576000816000905550600101610230565b5090565b90565b6102948061025e6000396000f300608060405260043610610057576000357c0100000000000000000000000000000000000000000000000000000000900463ffffffff168063776edb871461005c578063e83ddcea146100a1578063eff5924f14610155575b600080fd5b34801561006857600080fd5b5061008760048036038101908080359060200190929190505050610180565b604051808215151515815260200191505060405180910390f35b3480156100ad57600080fd5b506100cc600480360381019080803590602001909291905050506101a0565b6040518084815260200180602001838152602001828103825284818151815260200191508051906020019080838360005b838110156101185780820151818401526020810190506100fd565b50505050905090810190601f1680156101455780820380516001836020036101000a031916815260200191505b5094505050505060405180910390f35b34801561016157600080fd5b5061016a610262565b6040518082815260200191505060405180910390f35b60016020528060005260406000206000915054906101000a900460ff1681565b6000602052806000526040600020600091509050806000015490806001018054600181600116156101000203166002900480601f0160208091040260200160405190810160405280929190818152602001828054600181600116156101000203166002900480156102525780601f1061022757610100808354040283529160200191610252565b820191906000526020600020905b81548152906001019060200180831161023557829003601f168201915b5050505050908060020154905083565b600254815600a165627a7a72305820cfaf939cdff9d1916fea3d87cebb3ee65eff8f06a4e0769f3acf44e87719ec3d0029",
  "source": "pragma solidity ^0.4.25;\n\ncontract Class {\n    // Model a dat object \n    struct dat {\n        uint recepitID;\n        string reviewMessage;\n        uint numStars;\n    }\n\n    // Get and set reviews\n    mapping(uint => dat) public reviews;\n\n    // Get the list of order numbers\n    mapping(uint => bool) public hm_orderNumber_bool;\n\n    // Counter for the number of reviews\n    uint public reviewCount;\n\n    constructor () public {\n        addReview(1, \"Chicken and rice\", 4 );\n        addReview(2, \"Thai Basil Curry\", 5 );\n    }\n\n    function addReview (uint _product_id, string _review_message, uint _num_stars) private {\n        require(!hm_orderNumber_bool[_product_id]); // verify uniqueness of orderNumber\n        require(_num_stars >= 1 && _num_stars <= 5); // verify if the rating range is valid\n        reviewCount ++;\n        reviews[reviewCount] = dat(_product_id, _review_message, _num_stars);\n        hm_orderNumber_bool[reviewCount] = true;\n    }\n}",
  "sourcePath": "/Users/sushant/Desktop/proof-by-reciept/contracts/Class.sol",
  "compiler": {
    "name": "solc",
    "version": "0.4.25+commit.59dbf8f1.Emscripten.clang"
  },
  "schemaVersion": "3.4.11",
  "updatedAt": "2023-02-12T14:34:40.629Z",
  "networkType": "ethereum",
  "devdoc": {
    "methods": {}
  },
  "userdoc": {
    "methods": {}
  }
}