{
  "contractName": "Class",
  "abi": [
    {
      "constant": true,
      "inputs": [
        {
          "name": "",
          "type": "uint256"
        }
      ],
      "name": "hm_orderNumber_bool",
      "outputs": [
        {
          "name": "",
          "type": "bool"
        }
      ],
      "payable": false,
      "stateMutability": "view",
      "type": "function"
    },
    {
      "constant": true,
      "inputs": [
        {
          "name": "",
          "type": "uint256"
        }
      ],
      "name": "reviews",
      "outputs": [
        {
          "name": "recepitID",
          "type": "uint256"
        },
        {
          "name": "orderNumber",
          "type": "uint256"
        },
        {
          "name": "productName",
          "type": "string"
        },
        {
          "name": "reviewMessage",
          "type": "string"
        },
        {
          "name": "numStars",
          "type": "uint256"
        }
      ],
      "payable": false,
      "stateMutability": "view",
      "type": "function"
    },
    {
      "constant": true,
      "inputs": [],
      "name": "reviewCount",
      "outputs": [
        {
          "name": "",
          "type": "uint256"
        }
      ],
      "payable": false,
      "stateMutability": "view",
      "type": "function"
    },
    {
      "inputs": [],
      "payable": false,
      "stateMutability": "nonpayable",
      "type": "constructor"
    },
    {
      "constant": false,
      "inputs": [
        {
          "name": "_product_id",
          "type": "uint256"
        },
        {
          "name": "_order_number",
          "type": "uint256"
        },
        {
          "name": "_product_name",
          "type": "string"
        },
        {
          "name": "_review_message",
          "type": "string"
        },
        {
          "name": "_num_stars",
          "type": "uint256"
        }
      ],
      "name": "addReview",
      "outputs": [],
      "payable": false,
      "stateMutability": "nonpayable",
      "type": "function"
    }
  ],
  "bytecode": "0x608060405234801561001057600080fd5b5061009b60016103506040805190810160405280600981526020017f4865616470686f6e6500000000000000000000000000000000000000000000008152506040805190810160405280600d81526020017f47726561742070726f647563740000000000000000000000000000000000000081525060056101b4640100000000026401000000009004565b61012560026103516040805190810160405280600581526020017f57617463680000000000000000000000000000000000000000000000000000008152506040805190810160405280600b81526020017f4261642070726f6475637400000000000000000000000000000000000000000081525060016101b4640100000000026401000000009004565b6101af60016103526040805190810160405280600981526020017f4865616470686f6e6500000000000000000000000000000000000000000000008152506040805190810160405280600b81526020017f4d69642070726f6475637400000000000000000000000000000000000000000081525060036101b4640100000000026401000000009004565b61037e565b6001600085815260200190815260200160002060009054906101000a900460ff161515156101e157600080fd5b600181101580156101f3575060058111155b15156101fe57600080fd5b60026000815480929190600101919050555060a0604051908101604052808681526020018581526020018481526020018381526020018281525060008060025481526020019081526020016000206000820151816000015560208201518160010155604082015181600201908051906020019061027c9291906102d9565b5060608201518160030190805190602001906102999291906102d9565b5060808201518160040155905050600180600086815260200190815260200160002060006101000a81548160ff0219169083151502179055505050505050565b828054600181600116156101000203166002900490600052602060002090601f016020900481019282601f1061031a57805160ff1916838001178555610348565b82800160010185558215610348579182015b8281111561034757825182559160200191906001019061032c565b5b5090506103559190610359565b5090565b61037b91905b8082111561037757600081600090555060010161035f565b5090565b90565b61064d8061038d6000396000f300608060405260043610610062576000357c0100000000000000000000000000000000000000000000000000000000900463ffffffff1680636c367c0e14610067578063776edb8714610134578063e83ddcea14610179578063eff5924f146102a0575b600080fd5b34801561007357600080fd5b506101326004803603810190808035906020019092919080359060200190929190803590602001908201803590602001908080601f0160208091040260200160405190810160405280939291908181526020018383808284378201915050505050509192919290803590602001908201803590602001908080601f0160208091040260200160405190810160405280939291908181526020018383808284378201915050505050509192919290803590602001909291905050506102cb565b005b34801561014057600080fd5b5061015f600480360381019080803590602001909291905050506103f0565b604051808215151515815260200191505060405180910390f35b34801561018557600080fd5b506101a460048036038101908080359060200190929190505050610410565b604051808681526020018581526020018060200180602001848152602001838103835286818151815260200191508051906020019080838360005b838110156101fa5780820151818401526020810190506101df565b50505050905090810190601f1680156102275780820380516001836020036101000a031916815260200191505b50838103825285818151815260200191508051906020019080838360005b83811015610260578082015181840152602081019050610245565b50505050905090810190601f16801561028d5780820380516001836020036101000a031916815260200191505b5097505050505050505060405180910390f35b3480156102ac57600080fd5b506102b5610576565b6040518082815260200191505060405180910390f35b6001600085815260200190815260200160002060009054906101000a900460ff161515156102f857600080fd5b6001811015801561030a575060058111155b151561031557600080fd5b60026000815480929190600101919050555060a0604051908101604052808681526020018581526020018481526020018381526020018281525060008060025481526020019081526020016000206000820151816000015560208201518160010155604082015181600201908051906020019061039392919061057c565b5060608201518160030190805190602001906103b092919061057c565b5060808201518160040155905050600180600086815260200190815260200160002060006101000a81548160ff0219169083151502179055505050505050565b60016020528060005260406000206000915054906101000a900460ff1681565b6000602052806000526040600020600091509050806000015490806001015490806002018054600181600116156101000203166002900480601f0160208091040260200160405190810160405280929190818152602001828054600181600116156101000203166002900480156104c85780601f1061049d576101008083540402835291602001916104c8565b820191906000526020600020905b8154815290600101906020018083116104ab57829003601f168201915b505050505090806003018054600181600116156101000203166002900480601f0160208091040260200160405190810160405280929190818152602001828054600181600116156101000203166002900480156105665780601f1061053b57610100808354040283529160200191610566565b820191906000526020600020905b81548152906001019060200180831161054957829003601f168201915b5050505050908060040154905085565b60025481565b828054600181600116156101000203166002900490600052602060002090601f016020900481019282601f106105bd57805160ff19168380011785556105eb565b828001600101855582156105eb579182015b828111156105ea5782518255916020019190600101906105cf565b5b5090506105f891906105fc565b5090565b61061e91905b8082111561061a576000816000905550600101610602565b5090565b905600a165627a7a723058208c64e72b24fe0d686b2559c20b546ccda40b6be79533d5d87c18530f42c253820029",
  "source": "pragma solidity ^0.4.25;\n\ncontract Class {\n    // Model a dat object \n    struct dat {\n        uint recepitID;\n        uint orderNumber;\n        string productName;\n        string reviewMessage;\n        uint numStars;\n    }\n\n    // Get and set reviews\n    mapping(uint => dat) public reviews;\n\n    // Get the list of order numbers\n    mapping(uint => bool) public hm_orderNumber_bool;\n\n    // Counter for the number of reviews\n    uint public reviewCount;\n\n    constructor () public {\n        addReview(1, 848, \"Headphone\", \"Great product\", 5);\n        addReview(2, 849, \"Watch\", \"Bad product\", 1);\n        addReview(1, 850, \"Headphone\", \"Mid product\", 3);\n    }\n\n    function addReview (uint _product_id, uint _order_number, string _product_name, string _review_message, uint _num_stars) public {\n        require(!hm_orderNumber_bool[_order_number]); // verify uniqueness of orderNumber\n        require(_num_stars >= 1 && _num_stars <= 5); // verify if the rating range is valid\n        reviewCount ++;\n        reviews[reviewCount] = dat(_product_id, _order_number, _product_name, _review_message, _num_stars);\n        hm_orderNumber_bool[_order_number] = true;\n    }\n}\n",
  "sourcePath": "/Users/sushant/Desktop/proof-by-reciept/contracts/Class.sol",
  "compiler": {
    "name": "solc",
    "version": "0.4.25+commit.59dbf8f1.Emscripten.clang"
  },
  "schemaVersion": "3.4.11",
  "updatedAt": "2023-02-12T09:16:28.731Z",
  "networkType": "ethereum",
  "devdoc": {
    "methods": {}
  },
  "userdoc": {
    "methods": {}
  }
}