{
  "contractName": "Election",
  "abi": [
    {
      "constant": true,
      "inputs": [
        {
          "name": "",
          "type": "uint256"
        }
      ],
      "name": "reviewer",
      "outputs": [
        {
          "name": "name",
          "type": "string"
        },
        {
          "name": "stars",
          "type": "uint256"
        }
      ],
      "payable": false,
      "stateMutability": "view",
      "type": "function"
    },
    {
      "inputs": [],
      "payable": false,
      "stateMutability": "nonpayable",
      "type": "constructor"
    }
  ],
  "bytecode": "0x608060405234801561001057600080fd5b5061006260016040805190810160405280600681526020017f62726f206e6f000000000000000000000000000000000000000000000000000081525060026100b8640100000000026401000000009004565b6100b360026040805190810160405280600381526020017f594f6f000000000000000000000000000000000000000000000000000000000081525060036100b8640100000000026401000000009004565b6101b3565b60408051908101604052808381526020018281525060008085815260200190815260200160002060008201518160000190805190602001906100fb92919061010e565b5060208201518160010155905050505050565b828054600181600116156101000203166002900490600052602060002090601f016020900481019282601f1061014f57805160ff191683800117855561017d565b8280016001018555821561017d579182015b8281111561017c578251825591602001919060010190610161565b5b50905061018a919061018e565b5090565b6101b091905b808211156101ac576000816000905550600101610194565b5090565b90565b6101db806101c26000396000f300608060405260043610610041576000357c0100000000000000000000000000000000000000000000000000000000900463ffffffff168063bf92e6fe14610046575b600080fd5b34801561005257600080fd5b50610071600480360381019080803590602001909291905050506100f3565b6040518080602001838152602001828103825284818151815260200191508051906020019080838360005b838110156100b757808201518184015260208101905061009c565b50505050905090810190601f1680156100e45780820380516001836020036101000a031916815260200191505b50935050505060405180910390f35b6000602052806000526040600020600091509050806000018054600181600116156101000203166002900480601f01602080910402602001604051908101604052809291908181526020018280546001816001161561010002031660029004801561019f5780601f106101745761010080835404028352916020019161019f565b820191906000526020600020905b81548152906001019060200180831161018257829003601f168201915b50505050509080600101549050825600a165627a7a7230582068ea1e47e3e80ac1126abb558d53db43d669dbb2a03db412c7dd275de34da77d0029",
  "source": "pragma solidity 0.4.25;\n\ncontract Election {\n    // Model a Revie\n    struct Candidate {\n        uint id; //receipt id\n        string name; //revie\n        uint voteCount; //stars\n    }\n    struct Rev {\n        string name; //this da revie\n        uint stars; // this is the rating\n    \n    }\n\n    constructor () public {\n        addMap(1, \"bro no\", 2);\n        addMap(2, \"YOo\", 3);\n    }\n\n    //I want to map the receipt id to the revie and stars\n    // Store accounts that have voted. WE DO NOT NEED TO STORE VOTES.\n    mapping(uint => Rev) public reviewer;\n\n    function addMap(uint _id, string _revi, uint _stars) private {\n        reviewer[_id] = Rev(_revi, _stars);\n    }\n\n}\n",
  "sourcePath": "/Users/sushant/Desktop/proof-by-reciept/contracts/Election.sol",
  "compiler": {
    "name": "solc",
    "version": "0.4.25+commit.59dbf8f1.Emscripten.clang"
  },
  "schemaVersion": "3.4.11",
  "updatedAt": "2023-02-12T03:40:40.144Z",
  "networkType": "ethereum",
  "devdoc": {
    "methods": {}
  },
  "userdoc": {
    "methods": {}
  }
}